{
  "contractName": "PolicyContract",
  "abi": [
    {
      "constant": true,
      "inputs": [],
      "name": "numberOfBoughtPolicies",
      "outputs": [
        {
          "name": "",
          "type": "uint256"
        }
      ],
      "payable": false,
      "stateMutability": "view",
      "type": "function"
    },
    {
      "constant": true,
      "inputs": [
        {
          "name": "",
          "type": "uint256"
        }
      ],
      "name": "policyBuyers",
      "outputs": [
        {
          "name": "name",
          "type": "string"
        },
        {
          "name": "city",
          "type": "string"
        },
        {
          "name": "email",
          "type": "string"
        },
        {
          "name": "day",
          "type": "string"
        },
        {
          "name": "userAddress",
          "type": "address"
        },
        {
          "name": "amount",
          "type": "uint256"
        }
      ],
      "payable": false,
      "stateMutability": "view",
      "type": "function"
    },
    {
      "constant": true,
      "inputs": [],
      "name": "totalPolicyBought",
      "outputs": [
        {
          "name": "",
          "type": "uint256"
        }
      ],
      "payable": false,
      "stateMutability": "view",
      "type": "function"
    },
    {
      "constant": true,
      "inputs": [],
      "name": "owner",
      "outputs": [
        {
          "name": "",
          "type": "address"
        }
      ],
      "payable": false,
      "stateMutability": "view",
      "type": "function"
    },
    {
      "inputs": [],
      "payable": false,
      "stateMutability": "nonpayable",
      "type": "constructor"
    },
    {
      "payable": true,
      "stateMutability": "payable",
      "type": "fallback"
    },
    {
      "constant": false,
      "inputs": [
        {
          "name": "name",
          "type": "string"
        },
        {
          "name": "city",
          "type": "string"
        },
        {
          "name": "email",
          "type": "string"
        },
        {
          "name": "day",
          "type": "string"
        }
      ],
      "name": "purchasePolicy",
      "outputs": [
        {
          "name": "",
          "type": "bool"
        }
      ],
      "payable": false,
      "stateMutability": "nonpayable",
      "type": "function"
    },
    {
      "constant": true,
      "inputs": [],
      "name": "getBalance",
      "outputs": [
        {
          "name": "",
          "type": "uint256"
        }
      ],
      "payable": false,
      "stateMutability": "view",
      "type": "function"
    },
    {
      "constant": true,
      "inputs": [
        {
          "name": "account",
          "type": "address"
        }
      ],
      "name": "getAccountPolicy",
      "outputs": [
        {
          "name": "",
          "type": "uint256"
        }
      ],
      "payable": false,
      "stateMutability": "view",
      "type": "function"
    }
  ],
  "bytecode": "0x6060604052341561000f57600080fd5b336000806101000a81548173ffffffffffffffffffffffffffffffffffffffff021916908373ffffffffffffffffffffffffffffffffffffffff160217905550600060028190555060006003819055506108fb8061006e6000396000f300606060405260043610610083576000357c0100000000000000000000000000000000000000000000000000000000900463ffffffff16806312065fe01461009557806323cdb086146100be578063346e2c24146100e757806388ec86d1146103755780638da5cb5b1461039e57806391854354146103f3578063d15c7b3014610440575b34600360008282540192505081905550005b34156100a057600080fd5b6100a861057e565b6040518082815260200191505060405180910390f35b34156100c957600080fd5b6100d16105be565b6040518082815260200191505060405180910390f35b34156100f257600080fd5b61010860048080359060200190919050506105c4565b60405180806020018060200180602001806020018773ffffffffffffffffffffffffffffffffffffffff1673ffffffffffffffffffffffffffffffffffffffff16815260200186815260200185810385528b8181546001816001161561010002031660029004815260200191508054600181600116156101000203166002900480156101d55780601f106101aa576101008083540402835291602001916101d5565b820191906000526020600020905b8154815290600101906020018083116101b857829003601f168201915b505085810384528a8181546001816001161561010002031660029004815260200191508054600181600116156101000203166002900480156102585780601f1061022d57610100808354040283529160200191610258565b820191906000526020600020905b81548152906001019060200180831161023b57829003601f168201915b50508581038352898181546001816001161561010002031660029004815260200191508054600181600116156101000203166002900480156102db5780601f106102b0576101008083540402835291602001916102db565b820191906000526020600020905b8154815290600101906020018083116102be57829003601f168201915b505085810382528881815460018160011615610100020316600290048152602001915080546001816001161561010002031660029004801561035e5780601f106103335761010080835404028352916020019161035e565b820191906000526020600020905b81548152906001019060200180831161034157829003601f168201915b50509a505050505050505050505060405180910390f35b341561038057600080fd5b61038861061c565b6040518082815260200191505060405180910390f35b34156103a957600080fd5b6103b1610622565b604051808273ffffffffffffffffffffffffffffffffffffffff1673ffffffffffffffffffffffffffffffffffffffff16815260200191505060405180910390f35b34156103fe57600080fd5b61042a600480803573ffffffffffffffffffffffffffffffffffffffff16906020019091905050610647565b6040518082815260200191505060405180910390f35b341561044b57600080fd5b610564600480803590602001908201803590602001908080601f0160208091040260200160405190810160405280939291908181526020018383808284378201915050505050509190803590602001908201803590602001908080601f0160208091040260200160405190810160405280939291908181526020018383808284378201915050505050509190803590602001908201803590602001908080601f0160208091040260200160405190810160405280939291908181526020018383808284378201915050505050509190803590602001908201803590602001908080601f016020809104026020016040519081016040528093929190818152602001838380828437820191505050505050919050506106e8565b604051808215151515815260200191505060405180910390f35b60008060009054906101000a900473ffffffffffffffffffffffffffffffffffffffff1673ffffffffffffffffffffffffffffffffffffffff1631905090565b60025481565b600160205280600052604060002060009150905080600001908060010190806002019080600301908060040160009054906101000a900473ffffffffffffffffffffffffffffffffffffffff16908060050154905086565b60035481565b6000809054906101000a900473ffffffffffffffffffffffffffffffffffffffff1681565b6000806000809150600090505b6002548110156106de576001600082815260200190815260200160002060040160009054906101000a900473ffffffffffffffffffffffffffffffffffffffff1673ffffffffffffffffffffffffffffffffffffffff168473ffffffffffffffffffffffffffffffffffffffff1614156106d15781806001019250505b8080600101915050610654565b8192505050919050565b600060c0604051908101604052808681526020018581526020018481526020018381526020013373ffffffffffffffffffffffffffffffffffffffff1681526020016001815250600160006002548152602001908152602001600020600082015181600001908051906020019061076092919061082a565b50602082015181600101908051906020019061077d92919061082a565b50604082015181600201908051906020019061079a92919061082a565b5060608201518160030190805190602001906107b792919061082a565b5060808201518160040160006101000a81548173ffffffffffffffffffffffffffffffffffffffff021916908373ffffffffffffffffffffffffffffffffffffffff16021790555060a0820151816005015590505060026000815480929190600101919050555060019050949350505050565b828054600181600116156101000203166002900490600052602060002090601f016020900481019282601f1061086b57805160ff1916838001178555610899565b82800160010185558215610899579182015b8281111561089857825182559160200191906001019061087d565b5b5090506108a691906108aa565b5090565b6108cc91905b808211156108c85760008160009055506001016108b0565b5090565b905600a165627a7a72305820d0d609419c051e21eded6d162ec06c6d779988a4b768f2706e7064cb01aca57f0029",
  "source": "pragma solidity ^0.4.17;\r\n\r\ncontract PolicyContract {\r\n    address public owner; // Insurance account\r\n    mapping(uint => Policy) public policyBuyers; // Data structure holding all policies bought\r\n    uint public numberOfBoughtPolicies;\r\n    uint public totalPolicyBought;\r\n\r\n    // Data structure representing a policy\r\n    struct Policy {\r\n        string name; // Name of the user purchasing the policy\r\n        string city; // City for which the rain is being considered\r\n        string email; // Email address to communicate with\r\n        string day; // Day on which the rain is being considered\r\n        address userAddress; // User account who is purchasing the policy\r\n        uint amount; // Policy cost\r\n    }\r\n\r\n    // Constructor function. Called only once when this contract is deployed to\r\n    // blockchain network\r\n    function PolicyContract() public {\r\n        owner = msg.sender;\r\n        numberOfBoughtPolicies = 0;\r\n        totalPolicyBought = 0;\r\n    }\r\n\r\n    //Call this contract function to purchase policy\r\n    function purchasePolicy(string name,string city,string email,string day) public returns(bool) {\r\n        // Do validations first\r\n        // 1. Ensure the sender has enough ether balance to buy the policy\r\n        // 2. Any other??\r\n\r\n        // Store the bought policy\r\n        policyBuyers[numberOfBoughtPolicies] = Policy(name,city,email,day,msg.sender,1);\r\n        numberOfBoughtPolicies++;\r\n\r\n        // transfer 0.01 Ether from the sender acccount to the contract account\r\n        // Contract account represents the insurance company account\r\n        return true;\r\n    }\r\n\r\n    function getBalance() public view returns(uint256) {\r\n        return owner.balance;\r\n    }\r\n\r\n    // fallback function which will be called whenever ether is sent to the contract address\r\n    function() public payable {\r\n        totalPolicyBought += msg.value;\r\n\r\n    }  \r\n\r\n    // function getAccountPolicy(address account) public returns(Policy[]) {\r\n    //     Policy[] accountPolicies;\r\n    //     for (uint index = 0; index < numberOfBoughtPolicies; index++) {\r\n    //          if (account == policyBuyers[index].userAddress) {\r\n    //              accountPolicies.push(policyBuyers[index]);\r\n    //          }\r\n    //     }\r\n    //     return accountPolicies;\r\n    // }\r\n\r\n    function getAccountPolicy(address account) public view returns(uint) {\r\n        uint accountPolicies = 0;\r\n        for (uint index = 0; index < numberOfBoughtPolicies; index++) {\r\n             if (account == policyBuyers[index].userAddress) {\r\n                 accountPolicies++;\r\n             }\r\n        }\r\n        return accountPolicies;\r\n    }\r\n}",
  "sourcePath": "C:\\Development\\Ethereum\\Altoros\\Code\\Smart Contracts\\contracts\\PolicyContract.sol",
  "compiler": {
    "name": "solc",
    "version": "0.4.19+commit.c4cbbb05.Emscripten.clang"
  },
  "schemaVersion": "1.0.1",
  "updatedAt": "2018-02-24T18:11:32.312Z"
}