{
  "contractName": "PolicyContract",
  "abi": [
    {
      "constant": true,
      "inputs": [],
      "name": "numberOfBoughtPolicies",
      "outputs": [
        {
          "name": "",
          "type": "uint256"
        }
      ],
      "payable": false,
      "stateMutability": "view",
      "type": "function"
    },
    {
      "constant": true,
      "inputs": [
        {
          "name": "",
          "type": "uint256"
        }
      ],
      "name": "policyBuyers",
      "outputs": [
        {
          "name": "name",
          "type": "string"
        },
        {
          "name": "city",
          "type": "string"
        },
        {
          "name": "email",
          "type": "string"
        },
        {
          "name": "day",
          "type": "string"
        },
        {
          "name": "userAddress",
          "type": "address"
        },
        {
          "name": "amount",
          "type": "uint256"
        }
      ],
      "payable": false,
      "stateMutability": "view",
      "type": "function"
    },
    {
      "constant": true,
      "inputs": [],
      "name": "totalPolicyBought",
      "outputs": [
        {
          "name": "",
          "type": "uint256"
        }
      ],
      "payable": false,
      "stateMutability": "view",
      "type": "function"
    },
    {
      "constant": true,
      "inputs": [],
      "name": "owner",
      "outputs": [
        {
          "name": "",
          "type": "address"
        }
      ],
      "payable": false,
      "stateMutability": "view",
      "type": "function"
    },
    {
      "inputs": [],
      "payable": false,
      "stateMutability": "nonpayable",
      "type": "constructor"
    },
    {
      "payable": true,
      "stateMutability": "payable",
      "type": "fallback"
    },
    {
      "anonymous": false,
      "inputs": [
        {
          "indexed": false,
          "name": "from",
          "type": "address"
        },
        {
          "indexed": false,
          "name": "status",
          "type": "bool"
        }
      ],
      "name": "PolicyPurchase",
      "type": "event"
    },
    {
      "anonymous": false,
      "inputs": [
        {
          "indexed": false,
          "name": "from",
          "type": "address"
        }
      ],
      "name": "PolicyPurchaseEther",
      "type": "event"
    },
    {
      "constant": false,
      "inputs": [
        {
          "name": "name",
          "type": "string"
        },
        {
          "name": "city",
          "type": "string"
        },
        {
          "name": "email",
          "type": "string"
        },
        {
          "name": "day",
          "type": "string"
        }
      ],
      "name": "purchasePolicy",
      "outputs": [
        {
          "name": "",
          "type": "bool"
        }
      ],
      "payable": false,
      "stateMutability": "nonpayable",
      "type": "function"
    },
    {
      "constant": true,
      "inputs": [],
      "name": "getBalance",
      "outputs": [
        {
          "name": "",
          "type": "uint256"
        }
      ],
      "payable": false,
      "stateMutability": "view",
      "type": "function"
    },
    {
      "constant": true,
      "inputs": [],
      "name": "getAccountPolicy",
      "outputs": [
        {
          "name": "",
          "type": "uint256"
        }
      ],
      "payable": false,
      "stateMutability": "view",
      "type": "function"
    }
  ],
  "bytecode": "0x6060604052341561000f57600080fd5b336000806101000a81548173ffffffffffffffffffffffffffffffffffffffff021916908373ffffffffffffffffffffffffffffffffffffffff160217905550600060028190555060006003819055506109178061006e6000396000f300606060405260043610610083576000357c0100000000000000000000000000000000000000000000000000000000900463ffffffff16806312065fe0146100f857806323cdb08614610121578063346e2c241461014a57806349d0917f146103d857806388ec86d1146104015780638da5cb5b1461042a578063d15c7b301461047f575b346003600082825401925050819055507f483f68293db100c8098c12345cfd05ad0749c394dc8ac2935d311d1e88a2181d33604051808273ffffffffffffffffffffffffffffffffffffffff1673ffffffffffffffffffffffffffffffffffffffff16815260200191505060405180910390a1005b341561010357600080fd5b61010b6105bd565b6040518082815260200191505060405180910390f35b341561012c57600080fd5b6101346105fd565b6040518082815260200191505060405180910390f35b341561015557600080fd5b61016b6004808035906020019091905050610603565b60405180806020018060200180602001806020018773ffffffffffffffffffffffffffffffffffffffff1673ffffffffffffffffffffffffffffffffffffffff16815260200186815260200185810385528b8181546001816001161561010002031660029004815260200191508054600181600116156101000203166002900480156102385780601f1061020d57610100808354040283529160200191610238565b820191906000526020600020905b81548152906001019060200180831161021b57829003601f168201915b505085810384528a8181546001816001161561010002031660029004815260200191508054600181600116156101000203166002900480156102bb5780601f10610290576101008083540402835291602001916102bb565b820191906000526020600020905b81548152906001019060200180831161029e57829003601f168201915b505085810383528981815460018160011615610100020316600290048152602001915080546001816001161561010002031660029004801561033e5780601f106103135761010080835404028352916020019161033e565b820191906000526020600020905b81548152906001019060200180831161032157829003601f168201915b50508581038252888181546001816001161561010002031660029004815260200191508054600181600116156101000203166002900480156103c15780601f10610396576101008083540402835291602001916103c1565b820191906000526020600020905b8154815290600101906020018083116103a457829003601f168201915b50509a505050505050505050505060405180910390f35b34156103e357600080fd5b6103eb61065b565b6040518082815260200191505060405180910390f35b341561040c57600080fd5b610414610669565b6040518082815260200191505060405180910390f35b341561043557600080fd5b61043d61066f565b604051808273ffffffffffffffffffffffffffffffffffffffff1673ffffffffffffffffffffffffffffffffffffffff16815260200191505060405180910390f35b341561048a57600080fd5b6105a3600480803590602001908201803590602001908080601f0160208091040260200160405190810160405280939291908181526020018383808284378201915050505050509190803590602001908201803590602001908080601f0160208091040260200160405190810160405280939291908181526020018383808284378201915050505050509190803590602001908201803590602001908080601f0160208091040260200160405190810160405280939291908181526020018383808284378201915050505050509190803590602001908201803590602001908080601f01602080910402602001604051908101604052809392919081815260200183838082843782019150505050505091905050610694565b604051808215151515815260200191505060405180910390f35b60008060009054906101000a900473ffffffffffffffffffffffffffffffffffffffff1673ffffffffffffffffffffffffffffffffffffffff1631905090565b60025481565b600160205280600052604060002060009150905080600001908060010190806002019080600301908060040160009054906101000a900473ffffffffffffffffffffffffffffffffffffffff16908060050154905086565b600080600090508091505090565b60035481565b6000809054906101000a900473ffffffffffffffffffffffffffffffffffffffff1681565b600060c0604051908101604052808681526020018581526020018481526020018381526020013373ffffffffffffffffffffffffffffffffffffffff1681526020016001815250600160006002548152602001908152602001600020600082015181600001908051906020019061070c929190610846565b506020820151816001019080519060200190610729929190610846565b506040820151816002019080519060200190610746929190610846565b506060820151816003019080519060200190610763929190610846565b5060808201518160040160006101000a81548173ffffffffffffffffffffffffffffffffffffffff021916908373ffffffffffffffffffffffffffffffffffffffff16021790555060a082015181600501559050506002600081548092919060010191905055507f2912e41d3a22a038779f785849c8ffc93e65dd991ee8cbf946348f7ffac4fced336001604051808373ffffffffffffffffffffffffffffffffffffffff1673ffffffffffffffffffffffffffffffffffffffff168152602001821515151581526020019250505060405180910390a160019050949350505050565b828054600181600116156101000203166002900490600052602060002090601f016020900481019282601f1061088757805160ff19168380011785556108b5565b828001600101855582156108b5579182015b828111156108b4578251825591602001919060010190610899565b5b5090506108c291906108c6565b5090565b6108e891905b808211156108e45760008160009055506001016108cc565b5090565b905600a165627a7a72305820cca68b4a61b97932a61a48aaa712ae6d8856e8a97fde098ee001c548ecbc449c0029",
  "source": "pragma solidity ^0.4.17;\r\n\r\n\r\n\r\ncontract PolicyContract {\r\n    address public owner; // Insurance account\r\n    mapping(uint => Policy) public policyBuyers; // Data structure holding all policies bought\r\n    uint public numberOfBoughtPolicies;\r\n    uint public totalPolicyBought;\r\n\r\n    // Data structure representing a policy\r\n    struct Policy {\r\n        string name; // Name of the user purchasing the policy\r\n        string city; // City for which the rain is being considered\r\n        string email; // Email address to communicate with\r\n        string day; // Day on which the rain is being considered\r\n        address userAddress; // User account who is purchasing the policy\r\n        uint amount; // Policy cost\r\n    }\r\n\r\n    // Event triggered when user sends a policy purchase request\r\n    event PolicyPurchase(address from,bool status);\r\n\r\n    // Event triggered when user sends a ether for policy purchase\r\n    event PolicyPurchaseEther(address from);\r\n\r\n    // Constructor function. Called only once when this contract is deployed to\r\n    // blockchain network\r\n    function PolicyContract() public {\r\n        owner = msg.sender;\r\n        numberOfBoughtPolicies = 0;\r\n        totalPolicyBought = 0;\r\n    }\r\n\r\n    //Call this contract function to purchase policy\r\n    function purchasePolicy(string name,string city,string email,string day) public returns(bool) {\r\n        // Do validations first\r\n        // 1. Ensure the sender has enough ether balance to buy the policy\r\n        // 2. Any other??\r\n\r\n        // Store the bought policy\r\n        policyBuyers[numberOfBoughtPolicies] = Policy(name,city,email,day,msg.sender,1);\r\n        numberOfBoughtPolicies++;\r\n\r\n        // transfer 0.01 Ether from the sender acccount to the contract account\r\n        // Contract account represents the insurance company account\r\n\r\n        // Emit the event. Will be saved in transaction's logs when Tx is added in the mined block\r\n        PolicyPurchase(msg.sender,true);\r\n        return true;\r\n    }\r\n\r\n    function getBalance() public view returns(uint256) {\r\n        return owner.balance;\r\n    }\r\n\r\n    // fallback function which will be called whenever ether is sent to the contract address\r\n    function() public payable {\r\n        totalPolicyBought += msg.value;\r\n        PolicyPurchaseEther(msg.sender);\r\n    }  \r\n\r\n    // function getAccountPolicy(address account) public returns(Policy[]) {\r\n    //     Policy[] accountPolicies;\r\n    //     for (uint index = 0; index < numberOfBoughtPolicies; index++) {\r\n    //          if (account == policyBuyers[index].userAddress) {\r\n    //              accountPolicies.push(policyBuyers[index]);\r\n    //          }\r\n    //     }\r\n    //     return accountPolicies;\r\n    // }\r\n\r\n    function getAccountPolicy() public view returns(uint) {\r\n        uint accountPolicies = 0;\r\n        // for (uint index = 0; index < numberOfBoughtPolicies; index++) {\r\n        //     //  if (account == policyBuyers[index].userAddress) {\r\n        //     //      accountPolicies++;\r\n        //     //  }\r\n        // }\r\n        return accountPolicies;\r\n    }\r\n}",
  "sourcePath": "C:\\Development\\Ethereum\\Altoros\\Code\\Smart Contracts\\contracts\\PolicyContract.sol",
  "compiler": {
    "name": "solc",
    "version": "0.4.19+commit.c4cbbb05.Emscripten.clang"
  },
  "schemaVersion": "1.0.1",
  "updatedAt": "2018-03-03T01:43:04.038Z"
}